S014000030315F7374727563747572652E737265635F
S11300000C9448000C9452000C9452000C9452002E
S11300100C9452000C9452000C9452000C94520014
S11300200C9452000C9452000C9452000C94520004
S11300300C9452000C9452000C9452000C945200F4
S11300400C9452000C9452000C9452000C945200E4
S11300500C9452000C9452000C9452000C945200D4
S11300600C9452000C9452000C9452000C945200C4
S11300700C9452000C9452000C9452000C945200B4
S11300800C9452000C9452000C9452000C945200A4
S113009011241FBECFEFCDBFDFE3DEBF0E945400AB
S11300A00C946F000C940000CF93DF93CDB7DEB7B0
S11300B0CB59D109CDBFDEBF2BE9E2EEF0E4CE018E
S11300C00196DC0101900D922A95E1F780E090E021
S11300D0C556DF4FCDBFDEBFDF91CF910895F894B1
S10500E0FFCF4C
S11300E250726162616B61720000000000000000E6
S11300F20000000015004D0000224300008242412E
S11301026E6B757200000000000000000000000029
S113011200000016004D00002A4300008C424D6F7F
S113012268616E0000000000000000000000000092
S1130132000015004D00002243000070424A6F7413
S113014268690000000000000000000000000000D8
S11301520015004600002243000070425365746893
S1130162756C616B73686D6900000000000000002B
S10E017216004600002243000070420B
S9030000FC
