S016000030325F417665726167655F6167652E7372656306
S11300000C9448000C9452000C9452000C9452002E
S11300100C9452000C9452000C9452000C94520014
S11300200C9452000C9452000C9452000C94520004
S11300300C9452000C9452000C9452000C945200F4
S11300400C9452000C9452000C9452000C945200E4
S11300500C9452000C9452000C9452000C945200D4
S11300600C9452000C9452000C9452000C945200C4
S11300700C9452000C9452000C9452000C945200B4
S11300800C9452000C9452000C9452000C945200A4
S113009011241FBECFEFCDBFDFE3DEBF0E94B80047
S11300A00C94DE010C940000CF92DF92EF92FF9249
S11300B0CF93DF93CDB7DEB72C97CDBFDEBF898753
S11300C09A876B877C8719821A821B821C8215C0CF
S11300D089859A85FC018489958929813A81820FD1
S11300E0931F89839A8389859A854F9689879A87EE
S11300F08B819C8101968B839C832B813C818B8596
S11301009C852817390724F389819A81092E000CCC
S1130110AA0BBB0BBC01CD010E9452016B017C01F7
S11301208B859C85092E000CAA0BBB0BBC01CD0151
S11301300E945201DC01CB019C01AD01C701B60153
S11301400E94DE00DC01CB018D839E83AF83B887E0
S11301508D819E81AF81B885BC01CD012C96CDBF28
S1130160DEBFDF91CF91FF90EF90DF90CF900895A5
S1130170CF93DF93CDB7DEB7CF59D109CDBFDEBF63
S11301808BE9E0ECF3E4DE01159601900D928A957B
S1130190E1F7CE01059665E070E00E945400DC01B1
S11301A0CB0189839A83AB83BC8380E090E0C15602
S11301B0DF4FCDBFDEBFDF91CF9108950E94F200E3
S11301C00C94A4010E949D0158F00E94960140F0F5
S11301D029F45F3F29F00C948D0151110C94D8013E
S11301E00C9493010E94B50168F39923B1F355234C
S11301F091F3951B550BBB27AA2762177307840736
S113020038F09F5F5F4F220F331F441FAA1FA9F3CB
S113021035D00E2E3AF0E0E832D091505040E695B9
S1130220001CCAF72BD0FE2F29D0660F771F881F1A
S1130230BB1F261737074807AB07B0E809F0BB0B0D
S1130240802DBF01FF2793585F4F3AF09E3F510521
S113025078F00C948D010C94D8015F3FE4F3983E40
S1130260D4F3869577956795B795F7959F5FC9F70A
S1130270880F911D9695879597F90895E1E0660F8B
S1130280771F881FBB1F621773078407BA0720F004
S1130290621B730B840BBA0BEE1F88F7E09508956D
S11302A0E89409C097FB3EF490958095709561950C
S11302B07F4F8F4F9F4F9923A9F0F92F96E9BB27C2
S11302C09395F695879577956795B795F111F8CF3E
S11302D0FAF4BB0F11F460FF1BC06F5F7F4F8F4FA9
S11302E09F4F16C0882311F096E911C0772321F09F
S11302F09EE8872F762F05C0662371F096E8862F37
S113030070E060E02AF09A95660F771F881FDAF78D
S1130310880F9695879597F9089597F99F6780E8D0
S113032070E060E008959FEF80EC089500240A9443
S11303301616170618060906089500240A941216BC
S11303401306140605060895092E0394000C11F4EF
S1130350882352F0BB0F40F4BF2B11F460FF04C09C
S11303606F5F7F4F8F4F9F4F089557FD9058440FF5
S1130370551F59F05F3F71F04795880F97FB991F00
S113038061F09F3F79F087950895121613061406BD
S1130390551FF2CF4695F1DF08C01616170618064A
S11303A0991FF1CF86957105610508940895E89425
S11303B0BB2766277727CB0197F90895F894FFCFD9
S11303C050726162616B6172000000000000000005
S11303D00000000015004D0000224300008242414D
S11303E06E6B757200000000000000000000000049
S11303F000000016004D00002A4300008C424D6F9F
S113040068616E00000000000000000000000000B1
S1130410000015004D00002243000070424A6F7432
S113042068690000000000000000000000000000F7
S113043000150046000022430000704253657468B2
S1130440756C616B73686D6900000000000000004A
S10E045016004600002243000070422A
S9030000FC
